:020000040800F2
:10000000A87D002071020008EB250008FB1C0008F9
:10001000E92500081F100008A92D000800000000B5
:10002000000000000000000000000000B101000816
:10003000F1110008000000000D0200082D2C00083E
:100040008B0200088B0200088B0200088B0200085C
:100050008B0200088B0200088B0200088B0200084C
:100060008B0200088B0200088B0200088B0200083C
:100070008B0200088B0200088B0200088B0200082C
:100080008B0200088B0200088B02000800000000B1
:100090000000000000000000000000008B020008CB
:1000A0008B020008F92C00088B0200088B02000864
:1000B0008B0200088B0200088B0200088B020008EC
:1000C0008B0200088B0200088B0200088B020008DC
:1000D0008B0200088B0200088B0200080000000061
:1000E0008B0200088B0200088B0200080000000051
:1000F0000000000000000000000000008B0200086B
:10010000000000008B0200088B0200088B02000830
:1001100000000000000000000000000000000000DF
:100120008B0200088B0200088B0200088B0200087B
:100130008B0200080000000000000000000000002A
:100140000000000000000000000000008B0200081A
:100150008B0200088B0200088B0200088B0200084B
:100160008B0200088B020008000000000000000065
:10017000000000000000000000000000000000007F
:10018000000000008B0200080000000000000000DA
:100190008B0200088B020008DFF810D000F07EFB15
:1001A00000480047D9320008AFF30080A87D002046
:1001B0002C4B19680868B0E8F04F80F30988BFF34A
:1001C0006F8F4FF0000080F311887047000000002F
:1001D00008480068006880F308884FF0000080F34A
:1001E000148862B661B6BFF34F8FBFF36F8F00DF25
:1001F00000BF00BF08ED00E0DFF80C00016841F42B
:1002000070010160704700BF88ED00E0EFF30980E6
:10021000BFF36F8F134B1A681EF0100F08BF20ED4D
:10022000108A20E9F04F106009B44FF0500080F3BD
:100230001188BFF34F8FBFF36F8F03F0DBFE4FF0DA
:10024000000080F3118809BC19680868B0E8F04F15
:100250001EF0100F08BFB0EC108A80F30988BFF3BE
:100260006F8F704718000020EFF305807047000083
:100270000648804706480047FEE7FEE7FEE7FEE740
:10028000FEE7FEE7FEE7FEE7FEE7FEE7E92C0008F3
:10029000990100082DE9F05F0546002092469B4633
:1002A00088460646814640241BE02846414647468C
:1002B000224600F0FEF953465A46C01A914110D327
:1002C00011461846224600F0E5F92D1A67EB0108A1
:1002D0004F4622460120002100F0DCF917EB00090F
:1002E0004E41201EA4F10104DFDC484631462A4677
:1002F0004346BDE8F09F40EA01039B0703D009E0B5
:1003000008C9121F08C0042AFAD203E011F8013B01
:1003100000F8013B521EF9D27047D2B201E000F85A
:10032000012B491EFBD270470022F6E710B5134699
:100330000A4604461946FFF7F0FF204610BDF0B408
:1003400080EA0102D40F4200B2EB410F02D2024612
:10035000084611464A0042D0C30DDDB2C1F3C75270
:10036000AD1A202D35DAC1F3160141F4000204B1B3
:100370005242C5F1200602FA06F12A411044B3EBBD
:10038000D05F23D0C4B1012DA0EBC35009DCF0BC79
:100390004FF0004202EAC352DBB200F5000000F069
:1003A000A1B9400000F1807000EBC350A0F1807053
:1003B00040EAD170490009E0490841EAC071A0EB68
:1003C000C35000F50000400800EBC350F0BC00F043
:1003D00080B96142012202EB4101001BF6E7F0BC4B
:1003E000704781F00041AAE780F00040A7E780EA6B
:1003F000010210B502F00043400022D04A001FD095
:10040000010E01EB1261C0F35600C2F3560240F434
:10041000000042F40002A0FB022000047F39140413
:1004200000D0401C50EA124001D44000491EC2B224
:100430000C0604EBD010401C4008802A02D003E0D8
:10044000002010BD20F00100002900DA0020184330
:1004500010BD30B480EA010202F0004530F00042E5
:1004600021F0004013D090B1C30DD40DC2F316019A
:10047000C0F31600E41A41F4000140F400027D3498
:10048000914201D3641C00E04900002C02DA30BC28
:10049000002070474FF400000023914201D3891AD5
:1004A000034340084FEA4101F7D151B1914202D1D3
:1004B0004FF0004105E002D24FF0010101E06FF082
:1004C000010103EBC450284430BC00F002B92DE90F
:1004D000F04D81EA030404F0004B21F0004514467E
:1004E0004FF0000A23F0004150EA050220D054EA00
:1004F00001021DD0C5F30A570246C5F31303C1F329
:100500001300C1F30A5640F4801543F48013A7EB9F
:100510000608101BD64608F2FD3873EB050002D31F
:1005200008F1010801E092185B41B8F1000F03DA0D
:1005300000200146BDE8F08D00204FF480110646F2
:1005400084460EE0171B73EB050705D3121B63EB04
:10055000050306434CEA010C49084FEA30009218A3
:100560005B4150EA0107EDD152EA030012D082EA62
:10057000040083EA0501084305D0101BAB4106D2F5
:100580000122002306E000224FF0004302E06FF05A
:10059000010253101AEB06004CEB085110EB0A0055
:1005A00041EB0B01BDE8F04D00F0CAB8002801DBBB
:1005B000C0F10040002901DBC1F10041814201D8B6
:1005C0000120704700207047002801DBC0F1004087
:1005D000002901DBC1F10041814201D201207047B5
:1005E00000207047002801DBC0F10040002901DB3A
:1005F000C1F10041814201D90120704700207047BC
:10060000002801DBC0F10040002901DBC1F10041FD
:10061000814201D101207047002070470EB540F2A1
:10062000334102910021CDE900110A460B4600F04A
:1006300096F803B000BD00F0004230F000400AD050
:10064000C10D01F56071C0F3160042EA0151C20804
:1006500040071143704700200146704701F00043F6
:1006600030B421F0004150EA010206D00A0DA2F593
:100670006072C1F31301002A02DC30BC0020704715
:10068000440F44EAC104C100E01830BC00EBC25082
:1006900000F01FB8202A04DB203A00FA02F1002003
:1006A00070479140C2F1200320FA03F319439040B0
:1006B0007047202A04DB203A21FA02F0002170471B
:1006C00021FA02F3D040C2F12002914008431946BA
:1006D00070470029A8BF7047401C490008BF20F0A0
:1006E0000100704710B4B0FA80FC00FA0CF050EA38
:1006F000010404BF10BC704749B1CCF1200421FAB9
:1007000004F411FA0CF118BF012121430843A3EBB3
:100710000C01CB1D4FEA00614FEA102042BF0020C0
:1007200010BC704700EBC35010440029A4BF10BC9C
:100730007047401C490008BF20F0010010BC704702
:1007400010B5141E73F1000408DA401C41F10001D9
:1007500092185B411A4301D120F0010010BD2DE930
:10076000F04D92469B4611B1B1FA81F202E0B0FA27
:1007700080F220329046FFF78DFF04460F4640EA94
:100780000A0041EA0B0153465A46084313D011466A
:1007900053EA010019D0C8F140025046FFF789FF23
:1007A00005460E46504659464246FFF773FF08433A
:1007B00005D0012004E020463946BDE8F08D002038
:1007C000054346EAE0762C4337430A986305E40A7A
:1007D000A0EB08000022FD0A44EA47540A3002D583
:1007E00000200146E9E7010510196941DDE90845E6
:1007F00000196941BDE8F04DA2E72DE9F04D002355
:100800001A461B1A8A4103DB00200146BDE8F08D21
:10081000C1F30A52C1F3130141F480154FF0000BEC
:10082000D10702D100186D41521E0027044640F244
:10083000FF11384601EB620A3E4680460246002020
:100840004FF48011FFF735FFC2197141BB1846EB19
:100850000100B4EB030C75EB000C04D3E41A65EB58
:10086000000517460E46241908F101006D41804627
:100870003428E3DDF91946EB0600091BA84103D231
:100880004FF0FF32134601E0002213461BEB070036
:1008900046EB0A51BDE8F04DFFF752BF064C074D3D
:1008A00006E0E06840F0010394E807009847103440
:1008B000AC42F6D3FFF774FC9C4A0008BC4A00081F
:1008C00070B58C1810F8015B15F0070301D110F812
:1008D000013B2A1106D110F8012B03E010F8016B3F
:1008E00001F8016B5B1EF9D12B0705D40023521EC2
:1008F0000DD401F8013BFAE710F8013BCB1A921C2A
:1009000003E013F8015B01F8015B521EF9D5A14227
:10091000D8D3002070BD00002DE9F04F87B000242F
:1009200098460F460646B4EB920F46D0900822F048
:10093000030100243D46CDF81080029203970091F8
:1009400006EB8101C0F1000B019100BF96E8810127
:10095000F168069195E80206EA680592FFF747FDFF
:1009600001462046FFF7EBFC044638464946FFF7B0
:100970003EFD01462046FFF7E2FC04464046514654
:10098000FFF735FD01462046FFF7D9FC0446DDE9B7
:100990000510FFF72CFD01462046FFF7D0FC04466A
:1009A000103510361BF1010BD0D1039F0098DDF8F4
:1009B0001080DDE9016207EB800712F003000ED022
:1009C000454200BF56F8040B57F8041BFFF70FFD14
:1009D00001462046FFF7B3FC04460135F2D1C8F8C2
:1009E000004007B0BDE8F08F2DE9F04103880F8883
:1009F000BB423FD147884E88B7423BD11688B342AD
:100A000038D15688B74235D1466854684D6807FBDF
:100A100003F80020B0EB980F1BD04FEA9800474234
:100A200030682968FFF78BFC206070686968FFF701
:100A300086FC6060B068A968FFF781FCA060F06880
:100A4000E968FFF77CFCE0601034103510360137A0
:100A5000E6D118F003000BD0474200BF56F8040B54
:100A600055F8041BFFF76BFC44F8040B0137F5D174
:100A7000002000E0FD2040B2BDE8F08143604280EC
:100A8000018070472DE9F04F93B0B0F802A0B0F8A4
:100A900000B0D34540F05D810A88FD25934540F0C4
:100AA00059814B889A4240F055814768BBF1000F4D
:100AB00000F039814C686FF00300019700274FF078
:100AC0007E585E46CDF820A000EB8B0920460494AA
:100AD000BBEB060008D0B9002046FFF725FC00203C
:100AE000013004348742FBD104F1040A751EC4F8B6
:100AF00000800FD0A9EB87015046FFF715FC0120BD
:100B0000544600BF013004348642FBD10137002D2A
:100B10002E46DDD1019FDDF820A0BBF1000F00F0D3
:100B20000281042007EB8A023C1DABF10108002181
:100B3000CDF824A0CDF81CB000EB8A000290CAF1D9
:100B400000000B904FEA8A00129000BF594580F0D8
:100B5000058101FB0AF01091049905970025934641
:100B60000392CDF8188057F8209001EB800107EB35
:100B700080004F460E910D9008E000BF1298DBF800
:100B80000070A8F1010835465844834638460021D4
:100B9000FFF70CFD40B938462946FFF723FD002832
:100BA0003E4608D008E000BF87F0004628463146A0
:100BB000FFF70AFD00B92E46B8F1000FDED130462E
:100BC0000021FFF71DFD002840F0C88029F00040FB
:100BD0003146FFF715FDDDE9062140B91098C04305
:100BE000401804D0002000BF01308242FCD14846AA
:100BF0000021FFF705FD099E002840F0AF800D9908
:100C00004FF07E500F9408601098AAEB0001012964
:100C100008460C910BD00F9D012400BF286849465F
:100C2000FFF717FC013445F8040BA642F6D10B9CE4
:100C30000E9D00BF28684946FFF70BFC45F8040BE2
:100C40000134F7D10C98DDF81C804FF0000B01380F
:100C50000A90DDE90465DDE90F4100BF8B4505D150
:100C60000C9806EB8A0605EB80053CE00D98D5F85C
:100C7000009001684846FFF7BAFB01464846FFF777
:100C8000B0FB45F8040B0A98E0B1CDF84480DDF8DC
:100C9000248001274FF0000A54F80A104846FFF755
:100CA000A6FB014655F80A00FFF79BFB013745F804
:100CB0000A000AF1040AB845EED15544DDF820A037
:100CC000DDF844800B9F0E9C54F8041B4846FFF748
:100CD0008EFB01463068FFF784FB46F8040B0137B2
:100CE000F2D1DDE90F4105EB81050BF1010BB8F104
:100CF0000108B3D10298039ADDF81880059FDDF84A
:100D00001CB00131044402440998A8F101080437D9
:100D1000013809907FF41AAF484600210025FFF7FB
:100D20006FFC019FB0B10AFB0BF50024002645B112
:100D300038680021FFF764FC18B101360437AE4271
:100D4000F6D3AE4208BF6FF00404204613B0BDE8EE
:100D5000F08FFD2568B213B0BDE8F08FFB25F9E7F1
:100D60002DE9F04F91B047880B889F4240F0AF804B
:100D7000068813889E4240F0AA804D8853889D4281
:100D800040F0A58052684FF0000949684FEA850895
:100D900005960497039502924268A9EB970001918A
:100DA000079027F0030002EB80000C920990B8082E
:100DB0000B90684301EB00102946009007F00300F8
:100DC0000A904042069000BF029800EB890ADDE9D4
:100DD000000BCDF8209010900B980F91002847D071
:100DE000CDF838A0CDF834B0D946DDF81CA0DDF838
:100DF00030B000249BE8C100D9F80010DBF80C509B
:100E0000FFF7F5FA01462046FFF799FA59F808105E
:100E100004463046FFF7EBFA01462046FFF78FFA0B
:100E200009EB08060446384656F80810FFF7DFFAC3
:100E300001462046FFF783FA46440446284656F802
:100E40000810FFF7D4FA01462046FFF778FA044667
:100E500006EB08000BF1100B1AF1010A00EB080970
:100E6000C8D1109DDDE90896DDE90DBA03E000BFA9
:100E70000C9E00245D460A9868B1069F56F8040B44
:100E80002968FFF7B4FA01462046FFF758FA0446EE
:100E900045440137F2D110980F994AF8044B0BF1F1
:100EA000040B04300139109096D10498099901EB94
:100EB000800109910C9901EB800105980C9103992F
:100EC0000138894405907FF47FAF002000E0FD20C9
:100ED00040B211B0BDE8F08F2DE9F04103880F88D2
:100EE000BB423FD147884E88B7423BD11688B342B8
:100EF00038D15688B74235D1466854684D6807FBEB
:100F000003F80020B0EB980F1BD04FEA980047423F
:100F100030682968FFF765FA206070686968FFF734
:100F200060FA6060B068A968FFF75BFAA060F068DB
:100F3000E968FFF756FAE0601034103510360137D3
:100F4000E6D118F003000BD0474200BF56F8040B5F
:100F500055F8041BFFF745FA44F8040B0137F5D1A7
:100F6000002000E0FD2040B2BDE8F0812DE9F04F07
:100F700082B0B0F800E04B889E454BD144880B8886
:100F80009C4247D100234E6804F0030B40684FEAAF
:100F90000E184FEA940AA3EB9401CBF100090191DA
:100FA0004FEA8E0132460096BAF1000F1CD0019F25
:100FB000344600BF2546046801372C6044686C50F5
:100FC00005EB0104D0F808C044F801C00C44C26825
:100FD00000F11000625004EB010202EB0104E9D1C0
:100FE00005EB080703E000BF009A02EB8307BBF1A3
:100FF000000F07D04D4600BF50F8042B01353A6072
:101000000F44F9D10436BEF1010E03F10103CBD137
:10101000002000E0FD2040B202B0BDE8F08FFEE706
:101020002DE9F04100F58472044600F15001803052
:1010300090460546FFF794FE04F588721746414630
:1010400004F19000FFF748FF04F1E802164604F1AE
:10105000B0012846FFF784FE04F1F002154604F1C2
:1010600088013046FFF77CFE04F1F802164604F1D1
:1010700078012846FFF7B8FC04F580710D4630462C
:10108000FFF700FD424639462846FFF769FE94F80F
:101090004A2D144B04F53E6104F6F830FFF73CFC92
:1010A0001049114B00200A689A4213DD012284F88E
:1010B000622D84F8642D84F8632D4A68521C4A60BE
:1010C000322A05D984F8620D84F8640D84F8630D22
:1010D000BDE8F08184F8620D84F8640D84F8630D36
:1010E0004860F5E7940000200000F6420A4808B581
:1010F000017800290ED10121017008494A68009247
:1011000043699A4202D20269521C026149684161F4
:101110000021017008BD0000D8010020001000E08F
:101120000A4948680A4AD2ED010A4A68121AF8EEDA
:10113000601A01EE102AB8EE411A60EE211AB4EEE0
:10114000E11AF1EE10FAF0D370470000001000E051
:10115000D801002010B5044611482DED028B82B055
:10116000406800900F484068FFF758FA41EC180BB0
:1011700020680099081AFFF751FA53EC182BFFF773
:10118000A6F941EC180B00982060FFF7AFFF02B002
:10119000B0EE480AF0EE680ABDEC028B10BD00000C
:1011A000001000E0D80100200D490A6842F080726A
:1011B0000A600C4900224A600B6843F001030B608F
:1011C00009494FF47A734843B0FBF3F30749C1E987
:1011D0000103054BB0FBF3F0C1E90302FFF786BF43
:1011E000FCED00E0001000E040420F00D8010020BC
:1011F000704700002DE9F84FDFF8B8A10022012464
:1012000003254FF00F090AF1040BAAF1040E00BFE9
:101210000B6804FA02F63340B34273D10F7907F03A
:101220000307012F01D0022F16D187684FEA420829
:1012300005FA08FC27EA0C07D1F80CC00CFA08FCE8
:101240004CEA070CC0F808C04768B7430E79C6F3EC
:10125000001696403E4346600E79F643B6070DD021
:10126000C768560005FA06FC27EA0C07D1F808C043
:101270000CFA06FC4CEA070CC0F80CC00E7906F01C
:101280000306022E10D1D60800EB8608D8F820609D
:1012900057074FEAD76C09FA0CF7BE430F6907FAF4
:1012A0000CF73743C8F8207006684FEA420C05FA7D
:1012B0000CF7BE430F7907F0030707FA0CF7374323
:1012C00007604E6816F4403F6DD03B4E376847F4D8
:1012D00080473760366822F0030706F480460096A0
:1012E000364E07EB060CDCF8086897073F0F09FA43
:1012F00007F826EA0806DFF8C880404503D14FF01A
:1013000000081EE04FE0DFF8BC80404502D14FF0FE
:10131000010816E0DFF8B080404502D14FF0020826
:101320000FE0DFF8A880404502D14FF0030808E045
:10133000DFF89C80404502D14FF0040801E04FF0F7
:10134000070808FA07F848EA0608CCF80888DAF827
:1013500000605746D1F804C09E435FEACC2C00D50C
:101360001E433E60DBF800605F46D1F804C09E4338
:101370005FEA8C2C00D51E433E60DEF800607746A5
:10138000D1F804C09E435FEA8C3C00D51E433E600A
:10139000084F083F3E68D1F804C09E435FEACC3C4A
:1013A00000D51E433E60521C102AFFF431AFBDE849
:1013B000F88F0000083C01404438024000300140F2
:1013C000000002400004024000080240000C0240FD
:1013D000001002400069084000D0012070470AB1A7
:1013E000816170470904FBE701488068704700008D
:1013F000080000200248816802781144816070472B
:10140000080000200B4810B5016841F4007101602C
:10141000016841F480610160016841F480710160FC
:10142000032000F099F80F2000F006F800F04AF8C9
:10143000002010BD003C024030B505461C4887B076
:101440000024016841F001010160006806A900F074
:101450000100009001A800F02BF900F049F91549AE
:10146000154AB0FBF1F11548491E026040F2E7321F
:10147000C0E90324C0E90114846100F033FB0400D7
:1014800012D10E4800F05CFB04000DD1192000F0D1
:1014900035F8102D07D200222946192000F03CF81B
:1014A0000748056000E0012407B0204630BD000079
:1014B0004438024040420F0000000140CC080020A8
:1014C0000C0000200C4882B0016841F480410160AA
:1014D000006800F4804000900748001F016841F058
:1014E000805101600068002200F0805000900F21C0
:1014F000901E02B000F010B844380240002809DB0A
:1015000000F01F02012191404009800000F1E0201D
:10151000C0F8001170470000F0B40E4B1B680C4679
:10152000C3F30223C3F10705042D00D90425191DB7
:10153000072901D2002300E0DB1E012606FA05F18F
:10154000491E214099409E40761E16403143F0BC12
:1015500001F03EBC0CED00E0064900F0070208680F
:101560004FF6FF03184040EA0220034A1043086088
:10157000704700000CED00E00000FA052DE9F0478F
:101580000E46050065D0DFF81481D8F80000F7B2E8
:1015900000F00700B04207D288F80070D8F80000C9
:1015A00000F00700B04254D128683D4C810712D5A5
:1015B000400703D5206840F4E050206028780007F9
:1015C00003D5206840F4604020602068A96820F0BE
:1015D000F000084320602878C0072DD030496868A3
:1015E0000839012812D0022813D0032811D0096825
:1015F000890700292DDA216821F0030101432160C8
:10160000FFF7F2FE814641F2883A0EE0096889034D
:10161000EFE709688901ECE7FFF7E6FEA0EB0901B7
:10162000514502D90320BDE8F0872068696800F0C1
:101630000C00B0EB810FEFD1D8F80010404601F05C
:101640000701B14207D90770006800F00700B042F7
:1016500001D00120E7E72878400705D52068E96830
:1016600020F4E050084320602878000706D5206861
:10167000296920F4604040EAC100206000F048F889
:101680002168084AC1F30311515CC840064908604B
:1016900006480068FFF7D0FE0020C4E7003C024087
:1016A000083802406C4A0008140000200C0000209A
:1016B0000F2202600C4A136803F0030343601368AF
:1016C00003F0F0038360136803F4E053C36012680F
:1016D0004FF4E05303EAD20202610448006800F0CC
:1016E000070008607047000008380240003C0240D4
:1016F0000448054900680968044AC1F34231515C55
:10170000C840704714000020083802407C4A000896
:10171000154810B5006810F00C02144813D0144995
:10172000042A0FD0082A0ED10F4C241F22682368E8
:1017300002F03F025B0207D52068C0F38810A0FBCF
:10174000010106E0084610BD2168C1F38811A1FB24
:1017500000010023FEF79EFD2168C1F30141491CF1
:101760004900B0FBF1F010BD083802400024F4003D
:1017700040787D012DE9F84F04006ED02078DFF825
:101780004C93C007A9F104054AD009F1040001688F
:10179000C1F38101012908D00068C0F3810002284B
:1017A0000AD1D9F80000400206D52868800337D551
:1017B00060680028E1D033E06068B0F5803F10D069
:1017C000B0F5A02F286810D020F480302860286859
:1017D00020F4802028606068A8B1FFF705FE064667
:1017E0000DE0286840F48030F4E740F48020286061
:1017F000F7E700BFFFF7F8FD801B642873D828685F
:101800008003F7D50CE0FFF7EFFD064605E000BFCB
:10181000FFF7EAFD801B6428F0D828688003F7D41E
:101820002078DFF8AC8280074FF0000A3ED5A74849
:10183000001D016811F00C0F08D00068C0F3810092
:1018400002280BD1D9F80000400207D4286880078D
:1018500016D5E068012800D112E033E1E068B8B1A4
:101860000120C8F80000FFF7BFFD064605E000BFF5
:10187000FFF7BAFD801B0228C0D828688007F7D57B
:101880002868216920F0F80040EAC10028600DE0D6
:10189000C8F800A0FFF7A8FD064604E0FFF7A4FD86
:1018A000801B02281FD828688007F7D420780007FB
:1018B00022D5864F87486169703771B10121016077
:1018C000FFF792FD064604E0FFF78EFD801B02281D
:1018D00009D838688007F7D50EE0C0F800A0FFF7F8
:1018E00083FD064605E082E0FFF77EFD801B0228AF
:1018F0007DD838688007F7D42078400768D5DFF8AE
:10190000CCB100270BF13C0BDBF80000C0000BD47E
:10191000DBF8001041F08051CBF80010DBF800003C
:10192000012700F0805000906B4E3068C00510D445
:10193000306840F480703060FFF756FD009005E09D
:10194000FFF752FD0099401A022850D83068C005B0
:10195000F6D55E4EA0686C3601280FD00528306899
:1019600010D020F001003060306820F004003060BA
:10197000A068B8B1FFF738FD00900FE0306840F084
:101980000100F4E740F004003060F7E7FFF72CFDBA
:101990000099411A41F28830814266D83068800748
:1019A000F4D50EE0FFF720FD009007E0FFF71CFDE7
:1019B0000099411A41F28830814256D83068800738
:1019C000F4D42FB1DBF8001021F08051CBF80010D7
:1019D000A069C8B33D49091D0968C1F38101022905
:1019E0004AD00228504607D0C8F8600000E03CE02A
:1019F000FFF7FAFC04463BE04746C8F86000FFF7F3
:101A0000F3FC064605E000BFFFF7EEFC801B022852
:101A10002BD828688001F7D4D4E907010843A16ACC
:101A20002E4A490802EB0141626A41EA82110843E9
:101A300094F82C1040EA0161C9F8001001203866C2
:101A4000FFF7D2FC044606E03EE000BFFFF7CCFC07
:101A5000001B022809D828688001F7D534E000BFB0
:101A6000FFF7C2FC001B022802D90320BDE8F88F53
:101A700028688001F4D427E00128F7D0D9F80000C5
:101A8000E26900F4800191421CD1226A00F03F011A
:101A9000914217D147F6C071626A0140B1EB821FD3
:101AA00010D1A26A4FF0FF3300F4403103EB520231
:101AB000B1EB024F06D194F82C1000F07060B0EB3F
:101AC000016F01D00120D1E70020CFE704380240A8
:101AD00000004742800E4742007000400000FFFFB8
:101AE0007047704710B5040003D094F83D0010B162
:101AF00007E0012010BD002084F83C00204600F0E3
:101B00001EF8022084F83D00211D206801F0FAF83B
:101B1000012084F8460084F83E0084F83F0084F8F1
:101B2000400084F8410084F8420084F8430084F8BF
:101B3000440084F8450084F83D00002010BD704743
:101B400090F83D10012901D001207047022180F852
:101B50003D100168CA6842F00102CA6000680E497F
:101B600088420ED0B0F1804F0BD00C49884208D08B
:101B70000B49884205D00B49884202D00A49884265
:101B800004D1816801F00701062903D0016841F002
:101B90000101016000207047000001400004004086
:101BA00000080040000C00400040014070472DE953
:101BB000F04104460068C66805694FF00007A907B0
:101BC00013D5B10711D5F91E0161012020772068D6
:101BD00080698007204602D0FFF7E8FF04E000F0AC
:101BE0007EF8204600F07CF82777680716D5700746
:101BF00014D521686FF00400086102202077206866
:101C0000806910F4407F204602D0FFF7CFFF04E048
:101C100000F065F8204600F063F82777280715D50F
:101C2000300713D521686FF0080008610420207781
:101C30002068C0698007204602D0FFF7B7FF04E0A4
:101C400000F04DF8204600F04BF82777E80616D54F
:101C5000F00614D521686FF0100008610820207785
:101C60002068C06910F4407F204602D0FFF79EFF35
:101C700004E000F034F8204600F032F82777E80757
:101C800008D0F00706D021686FF0010008612046F7
:101C900000F028F8280608D5300606D521686FF030
:101CA000800008612046FFF71BFF680608D5700614
:101CB00006D521686FF040000861204600F01CF84E
:101CC000A8060AD5B00608D521686FF02000086183
:101CD0002046BDE8F041FFF704BFBDE8F081704742
:101CE0007047000000680349884201D1FFF782BBBA
:101CF00070470000000001407047FEE710B586B055
:101D000014216846FEF710FB1948016841F0800174
:101D10000160016801F080010591016841F0010155
:101D20000160016801F001010591016841F00201C3
:101D3000016000680F4C00F002000590002218219D
:101D40002046FFF74CFB1820009011200190012045
:101D500002900220039069462046FFF74BFA0120CB
:101D600000F07EF8012000F08BF806B010BD0000F6
:101D7000303802400004024010B510210448FFF73B
:101D800029FB04469FED030AFFF7CAF9204610BD60
:101D900000040240ACC5273710B5012000F070F8F0
:101DA000012000F05DF8FFF7E7FF0446002000F097
:101DB00057F8204610BD70B50025012000F060F8EE
:101DC00000248026012000F04BF8FFF7D5FF012802
:101DD00002D126FA04F00543002000F041F8641C0B
:101DE000E4B2082CEED3284670BD10B500F048F8D8
:101DF000012000F035F8BDE81040002000F030B8B8
:101E000070B500240546802626FA04F0284000F02C
:101E100037F8012000F024F8002000F021F8641CBD
:101E2000E4B2082CF0D370BD10B5012000F028F802
:101E3000012000F015F8002000F022F8BDE8104065
:101E4000002000F00DB810B5002000F019F80120B6
:101E500000F006F8BDE81040012000F011B80000C5
:101E600010B5024608210448FFF7B9FABDE8104052
:101E70009FED020AFFF754B900040240ACC52737B2
:101E800010B5024610210448FFF7A9FABDE810403A
:101E90009FED020AFFF744B900040240ACC52737A2
:101EA0002DE9F04180F8481D80F8492D044680F85E
:101EB0004A3D00F58060B7EE000A80EDCC0A80ED67
:101EC000D30A80EDDA0A80EDE10A17460E4680ED6E
:101ED000E80A1D4680EDEF0A324604F52C731146E0
:101EE00004F15800FEF7CAFD324604F5507311465E
:101EF00004F16000FEF7C2FD04F574733A46314602
:101F000004F16800FEF7BAFD04F58C6332462946F9
:101F100004F18000FEF7B2FD04F59E632A463146C7
:101F200004F18800FEF7AAFD04F5D4632A46314681
:101F300004F1A000FEF7A2FD324604F5C873114675
:101F400004F1A800FEF79AFD324604F50873114625
:101F500004F1B000FEF792FD04F5987301223146BA
:101F600004F14800FEF78AFD04F5A473012231460E
:101F700004F15000FEF782FD324604F5E663114697
:101F800004F1B800FEF77AFD324604F5B06311465D
:101F900004F17000FEF772FD2A4604F5C263114693
:101FA00004F17800FEF76AFD04F5F863012231467A
:101FB00004F1C000FEF762FD04F5FB630122314627
:101FC00004F1C800FEF75AFD324604F5FE631146DF
:101FD00004F1D000FEF752FD324604F508631146C5
:101FE00004F1D800FEF74AFD04F51A63324629468B
:101FF00004F1E800FEF742FD04F511632A4631467C
:1020000004F1E000FEF73AFD2A4604F52363114689
:1020100004F1F000FEF732FD2A4604F52C63114668
:1020200004F1F800FEF72AFD2A4604F5356311464F
:1020300004F58070FEF722FD04F53E630122294677
:1020400004F58470FEF71AFD04F6F83301222946E0
:1020500004F58870FEF712FD324604F62843114657
:1020600004F59070FEF70AFD324604F6B8431146B7
:1020700004F59470FEF702FD04F54163314604F562
:102080008C70BDE8F0410122FEF7F8BC70B500F598
:102090009072044600F180011546A030FEF760FE04
:1020A00004F594721646294604F1B800FEF714FFB1
:1020B00004F1A80204F1B0013046BDE87040FEF71B
:1020C0004FBE2DE9F04100F1D002044600F1A80115
:1020D000583015460646FEF743FE04F160010F46F0
:1020E0003046FEF743FF04F1D8021646394628462B
:1020F000FEF736FE04F1B00204F170013046BDE88F
:10210000F041FEF771BC2DE9F04700F1880104466B
:10211000803089468046FEF729FF04F1E00204F191
:10212000B000174649460646FEF71AFE04F1E802DB
:10213000154631464046FEF713FE04F1F0021646FE
:1021400049462846FEF70CFE04F1F802154604F154
:1021500078013046FEF748FC04F580710E462846AB
:10216000FEF790FC04F1A00231463846BDE8F04786
:10217000FEF7F6BD2DE9F047044690F84A0D04F14C
:102180003001820004F5BC70FEF7B5F894F8490DF3
:1021900028B18200214604F5B070FEF7ACF8D4F8FF
:1021A0004C1D09B12046884794F8601D04F11800C1
:1021B000814600290BD1204600F076F8D4F8501D56
:1021C00009B12046884794F8610D10B14846BDE832
:1021D000F0872046FFF775FFD4F8541D09B120465B
:1021E000884794F8620D04F5A47704F5087804F59F
:1021F000C87604F5987580B194F8480D3946820088
:10220000284604F64854FEF776F8207841468200C6
:102210003046FEF770F820781CE02046FFF773FF89
:10222000D4F8581D09B12046884794F8630D00285A
:10223000E2D1204600F014F8D4F85C1D09B1204624
:10224000884794F8640D0028D6D12046FFF71EFF7A
:1022500094F8480D294682004846FEF74CF8B5E749
:102260002DE9F04100F5847200F150010446154655
:102270000F468030FEF774FD04F588721646294635
:1022800004F19000FEF728FE04F58C7215463146E5
:1022900004F1A000FEF764FD04F148023946284627
:1022A000BDE8F041FEF7A0BB2DE9F041044690F8EF
:1022B000492D00F1500500F148015830A2B104F158
:1022C000C0021746FEF74CFD04F1C802164604F1A1
:1022D000980104F16800FEF743FD2A46394630466E
:1022E000BDE8F041FEF780BB2A46BDE8F041FEF7AD
:1022F00037BD70B504463C2000F0C6F805463B20CB
:1023000000F0C2F845EA002020803E2000F0BCF832
:1023100005463D2000F0B8F845EA002060804020E6
:1023200000F0B2F805463F2000F0AEF845EA002084
:10233000A08070BD1CB504466846FFF7DAFFBDF902
:102340000000BBEE001A00EE100AF3EE000AB8EE31
:10235000C00A00F0E7FB84ED000ABDF90200BBEE05
:10236000001A00EE100AF3EE000AB8EEC00A00F000
:10237000D9FB84ED010ABDF90400BBEE001A00EEA2
:10238000100AF3EE000AB8EEC00A00F0CBFB84EDB1
:10239000020A1CBD70B50446442000F075F80546DD
:1023A000432000F071F845EA00202080462000F02C
:1023B0006BF80546452000F067F845EA002060808C
:1023C000482000F061F80546472000F05DF845EA36
:1023D0000020A08070BD00001CB504466846FFF7D1
:1023E000D9FFBDF90000DFED162A00EE100A9FEDBF
:1023F000153AB0EE621AB8EEC00AF0EE430A00F0E9
:1024000091FB84ED000ABDF90200B0EE621A00EE05
:10241000100AF0EE430AB8EEC00A00F083FB84ED28
:10242000010ABDF90400B0EE621A00EE100AF0EEE7
:10243000430AB8EEC00A00F075FB84ED020A1CBD29
:102440000000FAC40000FA44752000F01DB810B571
:10245000FFF754FC01216B2000F035F800216C20BF
:1024600000F031F80921192000F02DF806211A207A
:1024700000F029F818211B2000F025F81821BDE8EC
:1024800010401C2000F01FB810B50446FFF7CCFC2C
:10249000D020FFF7B5FCFFF77FFC2046FFF7B0FC2C
:1024A000FFF77AFCFFF7C0FCD120FFF7A9FCFFF78C
:1024B00073FCFFF780FC04460120FFF796FCFFF752
:1024C000C2FC204610BD70B50D460446FFF7ACFCBB
:1024D000D020FFF795FCFFF75FFC2046FFF790FC4C
:1024E000FFF75AFC2846FFF78BFCFFF755FCBDE8C9
:1024F0007040FFF7A8BC000010B58EB01C220B493D
:102500006846FDF7F8FE0021684600F002FF084C1F
:1025100006491C2260601C3107A8FDF7ECFE002173
:1025200007A800F0F6FE20600EB010BD344A000887
:1025300000000020F0B587B014216846FDF7F4FED6
:1025400026480024016841F004010160016801F09F
:1025500004010591016841F080010160016801F00A
:1025600080010591016841F001010160016801F0FD
:1025700001010591016841F002010160006801223A
:1025800000F00200164E5503059029463046FEF72E
:1025900026FF144F002218213846FEF720FF009531
:1025A0000125CDE90154694630460394FEF722FE29
:1025B000082000901120CDE9010402200390694613
:1025C0003846FEF717FE10200090CDE90154694609
:1025D00038460394FEF70EFE07B0F0BD30380240D7
:1025E0000008024000040240FEE7FEE770B500F577
:1025F00040642DED048BFEEE008AB7EE008A91ED6B
:10260000000AD0ED0B0AD1ED021AB6EE009A30EEB8
:10261000601A91ED010AD0ED0C0A84ED638A21EE77
:10262000282A70EE600A94ED620A21EE091A054626
:1026300060EEA82A22EE002A21EE001A60EE890A36
:1026400022EE803A61EEA82A61EE891A84ED642AAE
:1026500084ED653A62EE802A61EE801A20EE800AEF
:10266000C4ED662A84ED671A84ED688AC4ED691AA0
:1026700084ED6A3A84ED6B0AC4ED6C2A84ED6D8AB0
:1026800084ED6E1AC4ED6F1A84ED700A84ED712A20
:1026900084ED728A94ED5B0AD4ED5C0A20EE000AA8
:1026A00000EEA00AD4ED5D0A00EEA00AD4ED5E0AA9
:1026B00000EEA00A10EE100AFDF7BDFF41EC100B72
:1026C00000F082FD53EC102B9FED570B51EC100BDB
:1026D000FDF7FDFEFDF7C2FF00EE100AD4ED5B0A28
:1026E00004F5E87005F5407160EE800AC4ED5B0A00
:1026F00094ED5C1A21EE002A84ED5C2A94ED5D1ABB
:1027000021EE003A84ED5D3A94ED5E1A61EE001A16
:10271000C4ED5E1A94ED621A62EE012A61EE811A2E
:1027200023EE010A60EE810A22EE892A21EE891A3F
:1027300061EEA81A84ED732A20EE090A60EEA80A59
:1027400062EEA82A80EC040A0020C4ED780A84ED29
:10275000790AC4ED7A2A94ED633A85EDAD3A94EDA9
:10276000643A85EDAE3A94ED653A85EDAF3A94ED75
:10277000663A85EDB03A85EDB12A85EDB20A94ED61
:10278000672A85EDB32A94ED682A85EDB42A94ED85
:10279000692A85EDB52A94ED6A2A85EDB62AC5ED3C
:1027A000B70A85EDB81A94ED6B1A85EDB91A94ED58
:1027B0006C1A85EDBA1A94ED6D1A85EDBB1A94ED7D
:1027C0006E1A85EDBC1AC5EDBD1AC5EDBE0AD4ED75
:1027D0006F0AC5EDBF0AD4ED700AC5EDC00AD4ED8D
:1027E000710AC5EDC10AD4ED720AC5EDC20A85EDC4
:1027F000C30AC5EDC42AC5F81403C5F81803C5F803
:102800001C03C5F82003C8620863486388639FED12
:10281000080A85EDC98A85EDCA0A85EDD08A85ED5D
:10282000CF0ABDEC048B70BD000000000000F03F3B
:102830000000000000F54061B8EE001AD1ED5D2AFD
:1028400000F58060F0EE000A22EE812A80ED192A60
:1028500091ED5E0A60EE201AC0ED1A1AD1ED5B3AD6
:1028600023EE810A63EEA03A80ED1B0A91ED5C3AFB
:102870009FED130A23EE204A62EEA00A80ED1C4A67
:1028800080ED1D0A80ED1E0A80ED1F4AC0ED203A42
:10289000C0ED211AC0ED220A80ED230A63EE010A81
:1028A00080ED240AC0ED253AC0ED260A80ED272AE6
:1028B000C0ED281A80ED290A80ED2A0A7047000031
:1028C0000000000010B504462DED048BB0EE419AD7
:1028D000F0EE608AB0EE408A402100F68C50FDF7A1
:1028E00023FD032300220621201DFFF7D9FA1048FB
:1028F000C4F8580D0F48C4F8600D90220E4904F535
:102900002D70FDF7F8FC0C499022903104F5CA7047
:10291000FDF7F1FC08491822183904F59A70FDF703
:10292000EAFC04F60C6484EC038ABDEC048B10BD55
:10293000211000089D320008B40000202DE9F0416C
:1029400004462DED048BB0EE408A164600780F4603
:1029500040B99FED6F1AF7EE000AB2EE040A204666
:10296000FFF7B0FF96E80E0004F6246504F6186041
:1029700085E80E0097E80E0080E80E0004F540653B
:10298000314685ED628A94F84E0D820004F13400E0
:10299000FDF7B1FC39462046FFF728FE2046FFF739
:1029A00049FF95ED830A04F5806020EE080A80ED6A
:1029B000610A80ED680A80ED6F0A80ED760A95ED78
:1029C000840A20EE080A80ED7D0A80ED840A95EDE8
:1029D000850A20EE080A80ED850A80ED890A80EDDF
:1029E0008D0A01202070201DFFF7C4FB04F11C019B
:1029F00004F66C584EC988E84E00D4E90B1204F571
:102A00005060B7EE008AC0E91F1295ED5B1A95ED94
:102A10005C0AF0EE008A61EE011AF0EE480A40EE20
:102A2000001A51EEA80AD5ED5E1A21EE211AD5ED55
:102A30005D1A00EE211A21EE280A00F06FFA9FEDD0
:102A4000359AF0EE480A20EE090A85ED7C0A95EDEC
:102A50005B0A95ED5E1A60EE001A41EE011A51EE26
:102A6000A80AD5ED5C1A20EE210AD5ED5D1A01EE1B
:102A7000810A20EE280A00F051FA20EE090A85EDBD
:102A80007D0A95ED5C0AD5ED5E0A95ED5D1A20EEA6
:102A9000200AD5ED5B0A00EEC10AF8EE000A20EE2E
:102AA000200A00F0A5F920EE090A1B4985ED7E0AEF
:102AB00095ED7C0AD5ED810A70EE600A10EE900A61
:102AC000884204DDD5ED7F0A70EEC80A08E010EEFA
:102AD000900A1249884205D9D5ED7F0A70EE880A1E
:102AE000C5ED7F0A95ED7F1ADFED0D1AF0EE400A75
:102AF00041EE210AC5ED800A85ED810AD4F8080E61
:102B0000401CC4F8080EBDEC048BBDE8F081000049
:102B10000050C347E12E654200003443000034C337
:102B20000000B443DFED071A9FED072A70EEC10ADB
:102B300030EE610AC0EE021AB0EE410A01EEA00AC0
:102B40007047000000FEFFC600FE7F474FF47A7416
:102B5000204600F0D2FBFBE72DED028B6420FEF750
:102B600023FBFFF774FCFFF76FFC2A499FED2A1A3D
:102B7000F7EE000A0870B2EE040A2848FFF7A2FE3A
:102B8000264C274F403C9FED278A4FF4005604F116
:102B90000C05002231463846FEF721FC1F484C3810
:102BA000FFF7C8FB1D484038FFF716FC1948001D09
:102BB000FEF7D0FA5FF0000004EB800191ED001AFF
:102BC00005EB8001401C21EE081A032881ED001A54
:102BD000F2DB51EC100BFDF741FD104A00EE100A3C
:102BE0004C3A02F118010D48FFF7A8FE0E48A0F676
:102BF000284190ED7C0A81ED060A90ED7D0A81ED79
:102C0000070A90ED7E0A012081ED080A00F075FBAD
:102C1000BFE700001802002000000000786B0020D1
:102C20000008024035FA8E3C7877002010B550201D
:102C300080F31188BFF34F8FBFF36F8F01F04CFD0E
:102C400018B104494FF080500860002080F31188CB
:102C500010BD000004ED00E030B593B030216846AF
:102C6000FDF762FB14210CA8FDF75EFB1C48002455
:102C7000016841F080510160006800F080501190BF
:102C80001848016841F4404101600068022500F4E1
:102C9000404011900120039010200490009506956B
:102CA0000820CDE907406420CDE9090504200B90F8
:102CB0006846FEF75FFD08B172B6FEE70F20CDE96A
:102CC0000C054FF48050CDE90E4003210CA8109460
:102CD000FEF754FC002801D072B6FEE713B030BDF9
:102CE00040380240007000400248016841F4700121
:102CF0000160704788ED00E00148FEF758BF000012
:102D0000CC080020F0B50268204B214C9F03214DD8
:102D1000214E984207D0B84205D0A04203D0A84225
:102D200001D0B04204D122F0700C4A6842EA0C0291
:102D3000984210D0B8420ED0A0420CD0A8420AD07F
:102D4000B04208D0154CA04205D0154CA04202D08C
:102D5000144CA04203D122F44074CA6822434C6947
:102D600022F08002224302608A68C2620A6882629C
:102D7000984201D109690163012141610169C907D3
:102D800003D0016921F001010161F0BD00000140A3
:102D90000004004000080040000C004000400140DA
:102DA0000044014000480140FEE74100080218BF0E
:102DB00004200A0E18BF40F001004FF07F4232EAB3
:102DC000010108BF40F00200012808BF052070473C
:102DD0000907090E002804DB00F1E02080F8001448
:102DE000704700F00F0000F1E02080F8141D7047DC
:102DF00010B54FF00E402DED028BB0EE408A18EE6C
:102E0000104A00EB4400B0F1506F4AD84FF0FC403C
:102E1000B0EB440F22D2B0EEC80AF7EE000A30EE53
:102E2000C00AF6EE000A60EE208A18EE900A00F062
:102E3000DBFE01EE100A14F0004F1DBFDFED2D0A7E
:102E40009FED2D0AB1EE411ADFED2C0A08BF9FED70
:102E50002C0AF8EE001A21EE218A05E0DFED290A9E
:102E600068EE088AB0EE600A9FED271ADFED271A98
:102E700030EE080A48EE811A9FED251A08EEA11AD5
:102E8000DFED241A48EE811A9FED231A08EEA11AED
:102E900068EE281ABDEC028B01EE810A30EE200AA2
:102EA00010BD4FF0E440B0EB440F0CD918EE100AFF
:102EB000FFF77BFF042808BF00F0D2F9B0EE480A04
:102EC000BDEC028B10BD4FF07F40B0EB440F07D23A
:102ED000B0EE480ABDEC028BBDE8104000F0B1B97D
:102EE000012000F0D5F9BDEC028BBDE8104000F0E8
:102EF000AFB900000000C9BF22AAFDB90000C93F58
:102F000022AAFD390000000024FE1C3DC78AD83CDF
:102F10001E67383D1B93993DAFAA2A3E70B54FF00E
:102F200068422DED048BF0EE408A18EE900AB0EE68
:102F3000608A18EE101A02EB4003B3F1654F3CBFF4
:102F400002EB4102B2F1654F7DD200BFC0F3C7531F
:102F5000C1F3C7529A1A1B2A09DD10F0004F14BFA3
:102F60009FED830A9FED830ABDEC048B70BD12F1C7
:102F70001A0F36DA11F0004F09D010F0004F0CBFD5
:102F80009FED7D0A9FED7D0ABDEC048B70BD88EE40
:102F9000889A19EE100AFFF708FF042808BF00F00E
:102FA0005FF918EE900AFFF700FF054618EE100AC9
:102FB000FFF7FBFE044619EE100AFFF7F6FE042D9C
:102FC00018BF052D08D1042C18BF052C04D10028EA
:102FD00004BF022000F05CF9B0EE490ABDEC048B9E
:102FE00070BD4200B2EB410F3AD910F0004F19BF4B
:102FF000DFED630A9FED630ADFED630A9FED630A6D
:10300000B0EE481A0A46B1EE688A80F00041F0EE50
:10301000418A10460A1A5200B2F1807F34D24840E9
:1030200010F0004FDFED5A1A9FED5A2A1DBFBEEE79
:10303000001A70EEE10A30EE420AB6EE001A08BF3E
:1030400070EEA10A00E040E008BF30EE020AB0EEE8
:10305000682A01EE482A08EE818AC2EE081A15E0B5
:1030600011F0004F04BF9FED4C0AF0EE400AD1D0A2
:1030700010F0004F19BFDFED490A9FED490ADFED5F
:10308000490A9FED490AC5E7C8EE881A21EEA11A40
:103090009FED462ADFED462A41EE022A9FED452AA2
:1030A00001EE222ADFED442A41EE022A9FED432A57
:1030B000BDEC048B01EE222A21EE811A01EE020AF8
:1030C00030EE210A30EE200A70BD4FF07F42B2EBA5
:1030D000400F28BFB2EB410F09D2F0EE480AB0EE24
:1030E000680ABDEC048BBDE8704000F0ADB840EA62
:1030F00001035B0008BF41F0FF410BD0B2EB400F72
:1031000008BFB2EB410F08D120F0804008EE900AD2
:1031100021F0804108EE101A18E7B2EB400F12BF01
:103120005FEA410340F0FF4001F000413FF40EAF81
:10313000B2EB410F12BF5FEA400200F0004041F0E5
:10314000FF413FF403AF4A0092EA40033FF5FEAE71
:10315000002AACBF9FED1A0A9FED1A0A68EE808A1A
:1031600028EE008A18EE900A18EE101AEEE600001B
:10317000DB0FC9BFDB0FC93FDB0F4940DB0F49C085
:103180000000C9BF22AAFDB90000C93F22AAFD392B
:103190000060ED3EC30ACE3700000000000049C0C9
:1031A00022AA7DBA0000494022AA7D3A2DAD65BD14
:1031B0008FB8D53D0FB511BE61C84C3EA8AAAABEB6
:1031C0000000804F0000802F00B52DED048BB0EE85
:1031D000409AF0EE609A83B051EC190BFDF70DFBAD
:1031E00041EC180B18EE100A18EE901A8DED008BBA
:1031F000002818BF0120084320F00040C0F17F6084
:1032000000F1E040C00F14D019EE101A19EE900A28
:103210008DED009B002918BF0121084320F00040DC
:10322000C0F17F6000F1E040C00F04BF012000F05A
:103230002FF8B0EE480A03B0F0EE680ABDEC048B3C
:1032400000BD30EE000A704730EE200A70470000E3
:10325000DFED020A80EEA00A7047000000000000C7
:103260009FED020A20EE000A7047000000000010E7
:1032700002E008C8121F08C1002AFAD1704770473F
:10328000002001E001C1121F002AFBD1704700009D
:1032900001490860704700002002002070B59FEDD2
:1032A0000D0A00F58065044600F5907200F1A0015A
:1032B00085EDE10AB830FDF753FD902204F6284170
:1032C00004F5D460FDF717F8B7EE000A85EDE10AC2
:1032D00070BD000000000000FEF794F8FFF7BCFC92
:1032E000FFF728F9FFF708F900F00EF8FEE70146AE
:1032F0000020842900D0C81C704710B500B90120F7
:1033000000F0C4FD002010BD10B500F027FE002025
:1033100010BD7FB50D4604464169B0F9080081B182
:10332000A16971B1FFF7E3FFD4E905128DE8070049
:10333000D4E900102B46226901F08FF9039004B004
:1033400070BDFFF7D4FF03A9CDE90001208A2B4609
:1033500082B2D4E9001001F053F9012801D0002015
:10336000EDE70398EBE700002DE9F041184C0F461C
:103370000546E6682068001D00F055FC38B9206855
:1033800090F82C1001208840216981432161681C3C
:1033900007D137B12168BDE8F0410E48091D00F0A2
:1033A00091BC20683544B5424560216805D2A06BC8
:1033B000BDE8F041091D00F06DBC606B091D00F017
:1033C00069FCA06A854200D2A562BDE8F0810000D8
:1033D00018000020300A00202DE9F041054600F0D9
:1033E0007DFC2E4CA068401CA06020682C4F10B1C2
:1033F000606940B32DE02560A068012829D100262E
:1034000006EB860007EB800000F036FC761C072EEA
:10341000F6D323488C3000F02FFC2148A03000F078
:103420002BFC1F48B43000F027FC1D48C83000F0CA
:1034300023FC1B48DC3000F01FFC19488C30606313
:103440001430A06305E02068E96AC06A884200D8A9
:103450002560606A401C6062E96A01202269884038
:103460001043206101EB810007EB8000291D00F073
:1034700029FC00F053FC606900280CD02068E96A40
:10348000C06A884207D207494FF080500860BFF3F6
:103490004F8FBFF36F8FBDE8F08100001800002050
:1034A0005409002004ED00E038B500F017FC104C82
:1034B0002068C8B90F4800F0DFFB0E48143000F058
:1034C000DBFB0C48E060143020610A4B0020C03B5D
:1034D000009003F148020C210A2000F033FE206026
:1034E00010B105A100F09CFCBDE8384000F016BC0E
:1034F00054000020040B0020546D725100000000A5
:1035000030B4026C0B46002A0BD0C1681144C16074
:103510008468A14201D30168C16030BC1846FCF741
:10352000EABE30BC70472DE9F041856B1746044672
:103530000026026C82B1C7B1E068FCF7DCFEE168EE
:10354000206C091AE1602268914202D2A168081A2F
:10355000E060022F16D017E02068A8B9A06801F03B
:1035600021F906460020A0600EE06068FCF7C3FE6B
:10357000216C606808446060A168884204D32068B8
:10358000606001E005B16D1E6D1CA5633046BDE8AD
:10359000F08110B5044690F8510058B101280CD0C4
:1035A00002280FD0502080F31188BFF34F8FBFF354
:1035B0006F8FFEE7206B00F0C5FB2046BDE8104092
:1035C00000F0C0BB10BD000010484FF4C0414207DE
:1035D00006D0C01D0D4920F00700411AC1F5C041B9
:1035E0000B4A00230144C2E900030839183A21F0CC
:1035F000070111604B600B600B1AC0E90013936068
:103600004FF0004053605061704700002C0B0020C9
:1036100080000020144E154CA6F1C8074FF08058CA
:10362000DFF84C9012E000BF00F058FBF068C5686E
:10363000281D00F0F8FAA068401EA0606068401ED7
:10364000606000F06BFB2846FFF7A3FF606800286E
:10365000EAD138680128F9D9C9F80080BFF34F8F43
:10366000BFF36F8FF2E700001C0A00201800002053
:1036700004ED00E00346009829B10260C0E90F3173
:10368000012100F093BD0060F8E72DE9F0479A466C
:10369000DDE9098481466FF00303206B03EB8202AE
:1036A0001044089E20F00707780707D0502080F3C9
:1036B0001188BFF34F8FBFF36F8FFEE7002561B115
:1036C000002023180A5C83F834200A5C12B1401CE5
:1036D0001028F6D384F8435001E084F83450072EC4
:1036E00000D30626E662C4E91165201D00F0CFFA7A
:1036F00004F1180000F0CBFA2461C6F107006462FF
:10370000A061E56484F8505052464946384600F0BE
:1037100055FA2060B8F1000F01D0C8F80040BDE8AC
:10372000F087000030B5114900E011460A68824276
:10373000FBD34B685C18844203D14068184448604E
:10374000084643681C18944209D1084C183C246868
:10375000A24209D052681A4442600A6812680260A4
:10376000814200D0086030BD0460F9E7800000208D
:1037700070B5002441600B4D0061914206D8D11A0A
:103780008269914206D2011D286907E09A4203D25C
:10379000994201D3012403E0011DE86800F07AFAA0
:1037A000204670BD5400002010B5044600F096FA83
:1037B000A06B28B15FF0000400F0B0FA204610BD05
:1037C0000124F9E730B587B0394D67E00498002847
:1037D00064DB069C606910B1201D00F024FA03A888
:1037E00000F0D8F8024604980A2857D2DFE800F023
:1037F0000505052D334A05052D3394F8240040F0C6
:10380000010084F824000599A069059B0144204625
:10381000FFF7AEFF68B3216A2046884794F824007A
:1038200040073BD5002000900598A169002342186D
:103830001946204601F0CEF8D8B9502080F31188FF
:10384000BFF34F8FBFF36F8FFEE714F8240F20F004
:103850000100207022E094F8240040F0010084F878
:1038600024000598A06128B1811813462046FFF76F
:103870007FFF13E0502080F31188BFF34F8FBFF319
:103880006F8FFEE794F82400810703D4204600F0F0
:1038900059FA03E020F0010084F82400002204A972
:1038A000286800F0D7FD002890D107B030BD000097
:1038B000540000202DE9FC410F46054600F092FB24
:1038C00001A800F067F80446019818B100F0F0FF75
:1038D000BDE8FC81254EAFB130690068D0B3002748
:1038E000291B3A46306800F0AFFA00F0E1FF0028EB
:1038F000EED11F494FF080500860BFF34F8FBFF3E8
:103900006F8FE5E7A542EBD800F0D2FFF0682746BD
:10391000C068C468201D00F086F994F824004107AF
:1039200019D5A0692B4641193A462046FFF720FFDA
:10393000A8B100200346014600902A46204601F027
:1039400049F860B9502080F31188BFF34F8FBFF35F
:103950006F8FFEE707E020F0010084F82400216A61
:1039600020468847B4E70127BAE70000540000204A
:1039700004ED00E00648416B096829B1416BC96854
:10398000C9684968816270474FF0FF31FAE700006B
:103990001800002070B5054600F098FE064E04465B
:1039A000B068844203D200F009F8012000E0002052
:1039B00028602046B46070BD54000020F8B5194D51
:1039C00020E0C068C4680668201D00F02CF9216A58
:1039D0002046884794F82400400713D5A069304456
:1039E000B04206D924616060211DE86800F052F9F8
:1039F00008E000200346014600903246204600F0D1
:103A0000E9FF38B1E86801680029DAD12969C5E918
:103A10000310F8BD502080F31188BFF34F8FBFF320
:103A20006F8FFEE75400002008484068401C4FF0AC
:103A3000500080F3118804D0BFF34F8FBFF36F8F16
:103A4000FEE7BFF34F8FBFF36F8FFEE788000020C4
:103A5000074CE068016841B1C0680021D0F800005F
:103A6000FFF728FFFFF7AEFEF3E701210020F7E79D
:103A7000540000202DE9F041044600F02FF994F99C
:103A8000455004F1240609E0606A48B1304600F070
:103A9000D5FE08B100F028FA6D1E6DB2002DF3DCE2
:103AA0004FF0FF3684F8456000F038F900F016F961
:103AB00094F9445004F1100709E0206948B13846F0
:103AC00000F0BCFE08B100F00FFA6D1E6DB2002DC3
:103AD000F3DC84F84460BDE8F04100F01FB9000059
:103AE0002DE9F0410546002700F07CFA324E30689F
:103AF00008B9FFF769FD706905424ED1C5B30835B5
:103B000068070ED005F00700C0F1080005446807FB
:103B100007D0502080F31188BFF34F8FBFF36F8F12
:103B2000FEE72DB37068854237D823481830014628
:103B30000C6801E020460C466168A94202D2216867
:103B40000029F7D131688C4227D0076821680160CD
:103B500060680837411B10290FD96019420708D047
:103B6000502080F31188BFF34F8FBFF36F8FFEE7B4
:103B700013E041606560FFF7D5FD61687068401A29
:103B80007060B268904200D2B0607069014300205A
:103B9000C4E90001F068401CF06000F089FE78077D
:103BA00007D0502080F31188BFF34F8FBFF36F8F82
:103BB000FEE73846BDE8F0816800002010B5031F1D
:103BC0004FF080741C601B1F21F001011960191F48
:103BD000044B0B6014390A60091F6FF0020244386D
:103BE0000A6010BD293A000810B500EE100A2DED4C
:103BF000028BB1EEC08A18EE100A20F00040C0F12E
:103C0000FF40C00F0AD010EE100A20F00040C0F1B3
:103C1000FF40C00F04BF0120FFF73AFB18EE100A67
:103C2000BDEC028B10BDD0E9013201699A60D0E988
:103C300001235A604A68824201D182684A600022A8
:103C400002610868401E086008687047034B036003
:103C500003F15400086080201060704724020020A7
:103C6000044B036003F1540008604FF4807010604F
:103C7000704700007804002000F108014FF0FF3287
:103C8000C0E90112C160016100210160704700219B
:103C90000161704730B50B685A1C02D000F1080270
:103CA00002E0026904E02246546825689D42FAD980
:103CB00053684B6099608A60516008610168491CD3
:103CC000016030BD42684A6093688B6093685960B8
:103CD000916008610168491C01607047502080F3C1
:103CE0001188BFF34F8FBFF36F8F0A494868401C9C
:103CF000486001280CD10848006810F0FF0F07D079
:103D0000502080F31188BFF34F8FBFF36F8FFEE712
:103D1000704700008800002004ED00E00849486872
:103D200028B1401E486001D180F3118870475020AF
:103D300080F31188BFF34F8FBFF36F8FFEE7000052
:103D40008800002070B500282AD0164DA0F1080484
:103D500060686969084207D1502080F31188BFF379
:103D60004F8FBFF36F8FFEE722683AB1502080F388
:103D70001188BFF34F8FBFF36F8FFEE788436060FA
:103D800000F030F960686968084468602046FFF711
:103D9000C9FC2869401C2861BDE8704000F088BD5E
:103DA00070BD0000680000204FF0E020002101619C
:103DB000816105494FF47A720968B1FBF2F1491E3D
:103DC00041610721016170471400002010B5FCF724
:103DD0004BFA114910280ED300F1E02090F8F003BF
:103DE0000A78904207D2502080F31188BFF34F8F9A
:103DF000BFF36F8FFEE709480068896800F4E06050
:103E0000884207D9502080F31188BFF34F8FBFF34A
:103E10006F8FFEE710BD0000880000200CED00E071
:103E200010B5084B002200BF53F832401CB1521CA1
:103E3000082AF9D310BD43F8321003EBC2014860E1
:103E400010BD00001409002070B515460E4604464A
:103E5000FFF744FF94F944100020491C01D184F875
:103E6000440094F94510491C01D184F84500FFF73E
:103E700055FFA06B28B92A46314604F1240000F012
:103E800051F82046BDE87040FFF7F4BD10B50200C0
:103E900014D00F48006B38B1502080F31188BFF365
:103EA0004F8FBFF36F8FFEE700F09CF800211046A4
:103EB000FFF75AFA00F0FCFC002807D105494FF043
:103EC00080500860BFF34F8FBFF36F8F10BD0000AD
:103ED0001800002004ED00E002490A6A0260C96887
:103EE000416070471800002001490120C8617047F7
:103EF0001800002010B50C4650B109490968183166
:103F0000FFF7C8FE2046BDE810400121FFF72CBA9C
:103F1000502080F31188BFF34F8FBFF36F8FFEE700
:103F20001800002070B514460D4668B10A490968AA
:103F30001831FFF7C7FE0CB14FF0FF352146284678
:103F4000BDE87040FFF710BA502080F31188BFF32E
:103F50004F8FBFF36F8FFEE71800002030B587B09A
:103F60000024039405AA04A903A80494FFF76EFE95
:103F7000DDE903010094CDE90110002315A11748E4
:103F8000059A00F06AFB164D0028E8621FD000F089
:103F9000F1FC012809D0401C19D1502080F3118870
:103FA000BFF34F8FBFF36F8FFEE7502080F3118870
:103FB000BFF34F8FBFF36F8F4FF0FF30A862012028
:103FC0006861EC6007B0BDE8304000F041B807B070
:103FD00030BD000049444C45000000001536000883
:103FE000180000200248016B491C01637047000063
:103FF000180000201448016B11B10121C161704704
:104000000021C1610169B1FA81F1C1F11F0101EB28
:1040100081020E4951F822306BB101EB820101F1AE
:1040200008034A6852684A609A4201D152684A605D
:10403000D16801607047502080F31188BFF34F8F23
:10404000BFF36F8FFEE70000180000205409002026
:104050001CB537480168374A914207D1502080F398
:104060001188BFF34F8FBFF36F8FFEE700683149B0
:10407000491E884207D1502080F31188BFF34F8F2B
:10408000BFF36F8FFEE72C4908780190FF2008707E
:1040900008788DF800009DF800009DF8002000F0E1
:1040A000F000904207D0502080F31188BFF34F8F6B
:1040B000BFF36F8FFEE79DF80000204C00F050002A
:1040C00020700720A06005E09DF8002052008DF8C8
:1040D0000020401E9DF800201206F5D4A0600328A1
:1040E00007D0502080F31188BFF34F8FBFF36F8F3D
:1040F000FEE74FF44070A060019808700C48203033
:10410000016841F470010160016841F07041016093
:10411000FFF74AFE00206060FCF76EF8084801686F
:1041200041F040410160FCF753F800201CBD000045
:1041300000ED00E071C20F4100E400E088000020C3
:1041400034EF00E038B5049D18B153B1CAB181B164
:1041500020E0502080F31188BFF34F8FBFF36F8FA3
:10416000FEE7502080F31188BFF34F8FBFF36F8FAE
:10417000FEE7502080F31188BFF34F8FBFF36F8F9E
:10418000FEE739B1502080F31188BFF34F8FBFF3A2
:104190006F8FFEE748241C46012384F846302B46E7
:1041A0000094FFF767FA204638BD000070B50D4651
:1041B000040025D0FFF792FDD4E90F20216802FB0F
:1041C0000011A1600021A163216861600A46D4E961
:1041D0000F01401E00FB0121E16021464FF0FF303E
:1041E00001F8440F487004F110008DB1FFF744FD51
:1041F00004F12400FFF740FDFFF790FD012070BDA2
:10420000502080F31188BFF34F8FBFF36F8FFEE70D
:1042100021690029F0D000F011FB0028ECD00449FE
:104220004FF080500860BFF34F8FBFF36F8FE3E70D
:1042300004ED00E02DE9FF4782B01D468A464FF0AD
:104240000008040003D0BAF1000F08D011E050209C
:1042500080F31188BFF34F8FBFF36F8FFEE7206CA1
:1042600038B1502080F31188BFF34F8FBFF36F8FA9
:10427000FEE7022D0AD1E06B012807D0502080F321
:104280001188BFF34F8FBFF36F8FFEE700F010FA76
:104290003F4F4FF000094FF0805648B9049838B1AD
:1042A000502080F31188BFF34F8FBFF36F8FFEE76D
:1042B000FFF714FDA06BE16B884207D3022D05D0F8
:1042C0000498D0B1B8F1000F1AD01EE02A4651462A
:1042D0002046FFF728F9616A19B104F1240000F0C3
:1042E000ADFA20B13E60BFF34F8FBFF36F8FFFF782
:1042F00015FD012006B0BDE8F087FFF70FFD22E0B5
:104300006846FFF7E9FD4FF00108FFF707FDFFF7EB
:1043100069FEFFF7E3FC94F94400401C01D184F8E6
:10432000449094F94500401C01D184F84590FFF772
:10433000F5FC04A9684600F029F930B12046FFF7E2
:1043400099FB00F0B5FA0020D4E7FFF7C7FCA06B9B
:10435000E16B884213D1FFF7E1FC04F110000499EE
:10436000FFF7C8FD2046FFF785FB00F0A1FA002803
:104370009ED13E60BFF34F8FBFF36F8F98E7FFF77B
:10438000CDFC2046FFF776FB00F092FA90E70000A4
:1043900004ED00E02DE9F0471F46904689460400F1
:1043A00003D0B9F1000F08D011E0502080F311883C
:1043B000BFF34F8FBFF36F8FFEE7206C38B15020F3
:1043C00080F31188BFF34F8FBFF36F8FFEE7022F8B
:1043D0000AD1E06B012807D0502080F31188BFF389
:1043E0004F8FBFF36F8FFEE7FFF7F0FC5020EFF326
:1043F000118680F31188BFF34F8FBFF36F8FA06BCF
:10440000E16B884206D3022F04D0002086F3118886
:10441000BDE8F08794F94550A06B3A4649462046DE
:10442000FFF781F8681C04D06D1C84F8455001200A
:10443000ECE7606A0028FAD004F1240000F0FEF9ED
:104440000028F4D0B8F1000FF1D00121C8F8001015
:10445000EDE700002DE9F747002683B08A46040007
:1044600003D0BAF1000F08D011E0502080F311887A
:10447000BFF34F8FBFF36F8FFEE7206C38B1502032
:1044800080F31188BFF34F8FBFF36F8FFEE700F00B
:104490000FF9DFF8F4804FF000094FF0805748B96A
:1044A000059838B1502080F31188BFF34F8FBFF3C8
:1044B0006F8FFEE7FFF712FCA56BC5B15146204692
:1044C000FFF71EF86D1EA563206950B104F11000BE
:1044D00000F0B4F928B1C8F80070BFF34F8FBFF3F4
:1044E0006F8FFFF71BFC012006B0BDE8F087059831
:1044F00008B11EB106E0FFF711FC27E06846FFF7A0
:10450000EBFC0126FFF70AFCFFF76CFDFFF7E6FB6B
:1045100094F94400401C01D184F8449094F945007A
:10452000401C01D184F84590FFF7F8FB05A96846C7
:1045300000F02CF8002820460AD0FFF79BFA00F084
:10454000B7F92046FFF730F90028B3D00020CBE7B9
:10455000FFF72AF990B104F124000599FFF7CAFC8E
:104560002046FFF787FA00F0A3F90028A2D1C8F887
:104570000070BFF34F8FBFF36F8F9BE72046FFF7AD
:1045800079FA00F095F995E704ED00E02DE9F041A6
:104590000C46050011D0C4B1FFF7A0FB174BDA6839
:1045A0006E682068911B471C17D02F681B6A9F42BA
:1045B00019D0964217D8012410E0502080F31188BA
:1045C000BFF34F8FBFF36F8FFEE7502080F311884A
:1045D000BFF34F8FBFF36F8FFEE70024FFF79EFB03
:1045E0002046BDE8F081884205D9401A206028465F
:1045F000FFF772FCF1E700202060DCE718000020E4
:104600002DE9FF5F8346DDE90E87994616468A4607
:104610009000FFF765FA05001CD05420FFF760FA00
:10462000040014D00020256384F85100CDE9024035
:10463000CDE900874B46324651465846FFF725F8EC
:104640002046FEF7C9FE012004B0BDE8F09F2846D1
:10465000FFF778FB4FF0FF30F6E7F0B585B0DDE906
:104660000B640A9DA6B1DCB154270097266302268D
:1046700084F85160002604AFCDE90246CDE9005729
:10468000FFF703F82046FEF7A7FE049805B0F0BD3B
:10469000502080F31188BFF34F8FBFF36F8FFEE779
:1046A000502080F31188BFF34F8FBFF36F8FFEE769
:1046B0000548416919B1006B18B10020704701200D
:1046C0007047022070470000180000200148C068B1
:1046D00070470000180000202DE9F0412F4C002603
:1046E000206B28B1A069401CA0613046BDE8F08174
:1046F000E5686D1CE56013D1606B006838B150202F
:1047000080F31188BFF34F8FBFF36F8FFEE7606BAD
:10471000A16B6163A063206A401C2062FFF72AF945
:10472000A06ADFF87C80854209D3606B0068A0B185
:10473000606BC068C7687868854211D2A062206843
:10474000C06A00EB800158F82100012800D9012639
:10475000E0690028C9D00126C7E74FF0FF30EDE738
:10476000381DFFF760FAB86A18B107F11800FFF7B3
:104770005AFAF96A0120226988401043206101EB4E
:10478000810108EB8100391DFFF79CFAF86A216866
:10479000C96A8842C9D30126C7E700001800002073
:1047A0005409002070B504004FF0000140D0214DA5
:1047B0002868844207D0502080F31188BFF34F8FC0
:1047C000BFF36F8FFEE7A06C38B1401EA064636C2E
:1047D000E26A9A422CD040B12AE0502080F311883E
:1047E000BFF34F8FBFF36F8FFEE7201DFFF71BFA5C
:1047F000114A012150B9E06A00EB800352F82330DE
:1048000023B92B6901FA00F083432B61606CE062ED
:10481000C0F10700A061E06A2B698140194329615A
:1048200000EB800002EB8000211DFFF74BFA012115
:10483000084670BD18000020540900202DE9F04101
:10484000C068C468ACB104F118000746FFF7EBF983
:10485000154D286B0126A0B139461448FFF732FAEE
:10486000E06A2968C96A88421CD90120EE61BDE866
:10487000F081502080F31188BFF34F8FBFF36F8F0B
:10488000FEE7201DFFF7CFF9E16A2A6906FA01F079
:104890001043286101EB81000449B43901EB800029
:1048A000211DDBE70020E2E718000020080A0020B5
:1048B0002DE9F0472C4D00242746286B38B1FFF72F
:1048C0000DFA286B401E2863286B40B146E050204B
:1048D00080F31188BFF34F8FBFF36F8FFEE7A96896
:1048E000224E0120D1B3A6F1B40980463068E8B168
:1048F000F068C46804F11800FFF795F9201DFFF770
:1049000092F9E06A2A6908FA00F11143296100EB83
:10491000800109EB8100211DFFF7D4F9E06A2968C5
:10492000C96A8842E2D3C5F81C80DFE70CB1FFF703
:1049300021F8AC6944B14646FFF7CEFE00B1EE6106
:10494000641EF9D10020A861E86938B1084901273F
:1049500038070860BFF34F8FBFF36F8FFFF7DEF9A3
:104960003846BDE8F087000018000020080A002043
:1049700004ED00E010B586B0FEF796FD114C2068FE
:10498000B8B100200390049005AA04A903A8FFF77A
:1049900067F9DDE9032102208DE8070000230AA161
:1049A0000B48059AFFF759FE606010B106B0012070
:1049B00010BD502080F31188BFF34F8FBFF36F8F6E
:1049C000FEE7000054000020546D7220537663000F
:1049D000513A0008FEB51E4613460200089D4FF0EE
:1049E000000014D0124C2768002F0FD0CDE900131F
:1049F0000292062915DAFFF75BFE02284FF000034A
:104A00000DD0002269462068FFF714FCFEBD50203F
:104A100080F31188BFF34F8FBFF36F8FFEE72A46F5
:104A2000F0E70023324669463846FFF7B3FCFEBD87
:104A300054000020844A00084D2B000800000000AC
:104A400000000000800000000000000000000000E6
:104A5000904A0008592B00080000000000000000E8
:104A60000004000000000000000000000000000042
:104A7000000000000102030406070809000000000E
:104A80000102030464656661756C745461736B00A4
:104A9000696E735F7461736B00000000BC4A0008AC
:104AA0000000002024020000C0080008F44A0008AA
:104AB00024020020847B00008032000881320182C1
:104AC00010037524F41AAA01E1C3803FE80952E5F6
:104AD00082BC2345173C18091A3409631C080812C4
:104AE000401C46CDCCCC3D0409531C110B1AC842C6
:044AF0001C01500055
:040000050800019955
:00000001FF
